:020000040000FA
:020000000528D1
:040002000034003492
:06000A0083160313003011
:1000100088308312031388013720B92037204830F5
:10002000A2204F30A2204C30A2204130A22020300C
:10003000A2204D30A2205530A2204E30A2204430C4
:10004000A2204F30A2202130A2200C306F20272880
:100050000000000000000000000000000800000098
:10006000A4303B28000040303B281F303B280000D4
:100070000E303B280530A000A00B3C280800C830FB
:100080004E2864304E2832304E2814304E280A3024
:100090004E2805304E2802304E280130A100F9309C
:1000A000A0000000A00B5128A10B4F280800C83069
:1000B00062286430622832306228143062280A30A4
:1000C00062280530A2006430A100F930A0000000D1
:1000D000A00B6728A10B6528A20B63280800A300CA
:1000E00082202308F0398800081188110000881543
:1000F00000008811230EF0398800000088150000E8
:100100008811080083160313F0308800831203134C
:1001100088100815000088150000080888110F399C
:10012000A500000088150000080E88110F39A504ED
:10013000A51B82280815831603130030880083123C
:1001400003130800A400A30082202308F0398800CC
:10015000081188140000881500008811230EF0395A
:1001600088000811881400008815000088112408F0
:100170000800831203138811081188100F308800BB
:10018000831603130F30880088110811881083121A
:1001900003133A20303088000000881500008811D1
:1001A0004920303088000000881500008811303068
:1001B0008800000088150000881132203A20203085
:1001C0008800000088150000881128306F200F304B
:1001D0006F2001306F2006306F2080306F200800C4
:02400E00E223AB
:02401000FF3F70
:00000001FF
