:020000040000FA
:020000000528D1
:040002000034003492
:080008006128F2204D20433075
:10001000BB204F30BB204430BB204930BB20473091
:10002000BB204F30BB203A30BB20A3012608A200E2
:1000300034202508A20034200230A8200C30A8204B
:100040000D302402031D2028A010A4010310A50CCC
:10005000A60C0310A50CA60C0310A50CA60C0310EF
:10006000A50DA50D03100728A30A0930A100A20EB3
:1000700022080F39A10203183E284328A10030307E
:100080002107BB204728A10037302107BB200230C1
:100090002302031D3428A3010800831603178801D7
:1000A00089018316031306148801433081008312EB
:1000B00090308B008801A501A601A301A401A00135
:1000C0000800A40A8320A0186B2877207720061C3C
:1000D0007528A01475287D20061872280310A50C19
:1000E000A60C75280314A50CA60C8B1009000B1187
:1000F0006A3081000B1D7A2808000B11DB3081006B
:100100000B1D802808000B11FD3081000B1D862877
:100110000800A7001130A8003A30A9000000000034
:10012000A90B8E28A80B8C28A70B8A280800A700EB
:10013000FA30A800FA30A9001330AA000000AA0B78
:100140009E28A90B9C28A80B9A28A70B9828080082
:10015000AD00D2202D08F039880008118810000069
:100160008815000088112D0EF039880000008815D0
:10017000000088110800AE00AD00D2202D08F03933
:1001800088000811881400008815000088112D0EC1
:10019000F0398800081188140000881500008811C3
:1001A0002E08080083160313F0308800831203130F
:1001B0008810081500008815000008088811F0391B
:1001C000AF00000088150000080E88110F39AF0439
:1001D000AF1BD22808118316031300308800831246
:1001E00003130800831203138811081188100F30BD
:1001F0008800831603130F308800881108118810B7
:1002000083120313143089203030880000008815D1
:10021000000088110A3089203030880000008815DD
:100220000000881130308800000088150000881117
:1002300002308920203088000000881500008811D5
:100240002830A8200F30A8200130A8200630A82090
:100250008030A8200800B20032085D210A30320246
:10026000031C3B2964303202031C4329FF30320255
:10027000031C4C2908002030BB202030BB2030302C
:100280003307BB203A292030BB2030303407BB2055
:1002900030303307BB203A2930303507BB203030AF
:1002A0003407BB2030303307BB203A291030AC0074
:1002B0002030BB20AC0B59290800B300B501B401B4
:1002C0000A303302031C6D29B300B40A0A30340229
:1002D000031C6029B401B50A6029340E33070800F5
:02400E00C22FBF
:02401000FF3F70
:00000001FF
