:020000040000FA
:100000003420A820433071204F30712044307120BB
:1000100049307120473071204F3071203A307120C3
:100020002308A1001B202408A1001B2002305E2011
:100030000C305E200228A20A0930A000A10E21087F
:100040000F39A002031825282A28A00030302007E5
:1000500071202E28A00037302007712002302202A4
:10006000031D1B28A20108008316031788018901BC
:100070008316031306168801831288010800A50061
:100080001130A6003A30A70000000000A70B44285A
:10009000A60B4228A50B40280800A500FA30A600B0
:1000A000FA30A7001330A8000000A80B5428A70BB3
:1000B0005228A60B5028A50B4E280800AB0088201C
:1000C0002B08F039880008118810000088150000FE
:1000D00088112B0EF0398800000088150000881167
:1000E0000800AC00AB0088202B08F039880008110C
:1000F000881400008815000088112B0EF039880044
:100100000811881400008815000088112C080800C8
:1001100083160313F0308800831203138810081528
:1001200000008815000008088811F039AD000000B3
:1001300088150000080E88110F39AD04AD1B882802
:10014000081183160313003088008312031308007C
:10015000831203138811081188100F30880083164A
:1001600003130F30880088110811881083120313BD
:1001700014303F20303088000000881500008811BE
:100180000A303F20303088000000881500008811B8
:1001900030308800000088150000881102303F20B0
:1001A00020308800000088150000881128305E206B
:1001B0000F305E2001305E2006305E2080305E20F1
:1001C0000800B000300813210A303002031CF12867
:1001D00064303002031CF928FF303002031C02296E
:1001E000080020307120203071203030310771201C
:1001F000F028203071203030320771203030310744
:100200007120F028303033077120303032077120F0
:10021000303031077120F0281030AA0020307120D2
:10022000AA0B0F290800B100B301B2010A30310254
:10023000031C2329B100B20A0A303202031C16291A
:0C024000B201B30A1629320E3107080083
:04024C000034003446
:02400E00C22FBF
:02401000FF3F70
:00000001FF
