:020000040000FA
:100000000128DB2037204330A4204F30A420443087
:10001000A4204930A4204730A4204F30A4203A30F7
:10002000A420A2012308A1001E202408A1001E2054
:10003000023091200C30912047200328A20A093079
:10004000A000A10E21080F39A002031828282D288E
:10005000A00030302007A4203128A000373020072E
:10006000A42002302202031D1E28A20108008316CC
:100070000317880189018316031306168801D330FC
:10008000810083128801A301A401A20108006C2051
:10009000061A47286020061E472866206620061A92
:1000A00057280314A30DA40DA20A66205B28031091
:1000B000A30DA40DA20A0C302202031D4E28080035
:1000C0000B116A3081000B1D632808000B11DB3017
:1000D00081000B1D692808000B11FD3081000B1DEC
:1000E0006F280800A5001130A6003A30A7000000D4
:1000F0000000A70B7728A60B7528A50B732808000E
:10010000A500FA30A600FA30A7001330A8000000BE
:10011000A80B8728A70B8528A60B8328A50B812869
:100120000800AB00BB202B08F039880008118810AC
:1001300000008815000088112B0EF039880000009F
:100140008815000088110800AC00AB00BB202B080C
:10015000F039880008118814000088150000881103
:100160002B0EF03988000811881400008815000053
:1001700088112C08080083160313F03088008312BE
:10018000031388100815000088150000080888115E
:10019000F039AD00000088150000080E88110F39F5
:1001A000AD04AD1BBB280811831603130030880073
:1001B0008312031308008312031388110811881097
:1001C0000F308800831603130F3088008811081140
:1001D000881083120313143072203030880000001E
:1001E0008815000088110A30722030308800000025
:1001F0008815000088113030880000008815000044
:10020000881102307220203088000000881500001C
:100210008811283091200F30912001309120063034
:100220009120803091200800B000300846210A302B
:100230003002031C242964303002031C2C29FF30B7
:100240003002031C352908002030A4202030A420CF
:1002500030303107A42023292030A4203030320749
:10026000A42030303107A420232930303307A420C4
:1002700030303207A42030303107A4202329103039
:10028000AA002030A420AA0B42290800B100B30123
:10029000B2010A303102031C5629B100B20A0A30F9
:1002A0003202031C4929B201B30A4929320E31072F
:0202B000080044
:0402B20000340034E0
:02400E00C22FBF
:02401000FF3F70
:00000001FF
