:020000040000FA
:020000000528D1
:040002000034003492
:080008005928EC20442043308C
:10001000B5204F30B5204430B5204930B5204730A9
:10002000B5204F30B5203A30B520A3012508A200F5
:100030002A20A3012608A2002A200230A2200C3088
:10004000A2208312031324080D3A031D2328A010B5
:10005000A40107280310A30A0930A100A20E220858
:100060000F39A102031835283A28A10030302107A2
:10007000B5203E28A10037302107B5202308023AD9
:10008000031D2A28A301080083160317880189018C
:1000900083160313061406168801033081008312A9
:1000A00090308B008801A501A601A301A401A00145
:1000B0000800A700030EA8008312A40AA018652850
:1000C0007720061E7128A01471287D20061E6D2839
:1000D0000310A60DA50D031071280314A60DA50D80
:1000E0000310280E8300A70E270E8B1009000B119A
:1000F000643081000B1D7A2808000B11C830810084
:100100000B1D80280800A9001130AA003A30AB006E
:1001100000000000AB0B8828AA0B8628A90B8428B6
:100120000800A900FA30AA00FA30AB001330AC0086
:100130000000AC0B9828AB0B9628AA0B9428A90BAF
:1001400092280800AF00CC202F08F0398800081151
:10015000881000008815000088112F0EF0398800E3
:1001600000008815000088110800B000AF00CC2006
:100170002F08F03988000811881400008815000045
:1001800088112F0EF0398800081188140000881596
:10019000000088113008080083160313F03088002F
:1001A0008312031388100815000088150000080842
:1001B0008811F039B100000088150000080E881180
:1001C0000F39B104B11BCC2808118316031300307A
:1001D0008800831203130800831203138811081187
:1001E00088100F308800831603130F3088008811A1
:1001F00008118810831203131430832030308800D4
:1002000000008815000088110A30832030308800F3
:100210000000881500008811303088000000881523
:1002200000008811023083202030880000008815EB
:10023000000088112830A2200F30A2200130A22017
:100240000630A2208030A2200800B40034085721D4
:100250000A303402031C352964303402031C3D2962
:10026000FF303402031C462908002030B52020301E
:10027000B52030303507B52034292030B520303056
:100280003607B52030303507B520342930303707F0
:10029000B52030303607B52030303507B520342949
:1002A0001030AE002030B520AE0B53290800B50049
:1002B000B701B6010A303502031C6729B500B60A3A
:1002C0000A303602031C5A29B601B70A5A29360EDB
:0402D00035070800E6
:02400E00C22FBF
:02401000FF3F70
:00000001FF
