:020000040000FA
:020000000528D1
:040002000034003492
:080008006128F6204D20A4013F
:100010004330BF204F30BF204430BF204930BF2085
:100020004730BF204F30BF203A30BF20A301260801
:10003000A20034202508A20034200230AC200C306D
:10004000AC200D302402031D2128A0100310A50CA4
:10005000A60C0310A50CA60C0310A50CA60C0310EF
:10006000A50DA50D03100728A30A0930A100A20EB3
:1000700022080F39A10203183E284328A10030307E
:100080002107BF204728A10037302107BF200230B9
:100090002302031D3428A3010800831603178801D7
:1000A000890183160313061488010330810083122B
:1000B00090308B008801A501A601A301A401A00135
:1000C0000800A40A0D302402031979288720A018FB
:1000D0006F287B207B20061C7928A014792881209A
:1000E000061C76280310A50CA60C79280314A50C71
:1000F000A60C8B1009000B116A3081000B1D7E28A5
:1001000008000B11DB3081000B1D842808000B1147
:10011000FD3081000B1D8A280800A7001130A800BF
:100120003A30A90000000000A90B9228A80B9028E3
:10013000A70B8E280800A700FA30A800FA30A90003
:100140001330AA000000AA0BA228A90BA028A80B14
:100150009E28A70B9C280800AD00D6202D08F0395A
:1001600088000811881000008815000088112D0EE5
:10017000F039880000008815000088110800AE00E2
:10018000AD00D6202D08F039880008118814000031
:100190008815000088112D0EF03988000811881488
:1001A00000008815000088112E080800831603132C
:1001B000F03088008312031388100815000088159A
:1001C000000008088811F039AF0000008815000011
:1001D000080E88110F39AF04AF1BD62808118316FB
:1001E00003130030880083120313080083120313E3
:1001F0008811081188100F308800831603130F3000
:1002000088008811081188108312031314308D2080
:100210003030880000008815000088110A308D20D9
:1002200030308800000088150000881130308800C8
:10023000000088150000881102308D2020308800D1
:1002400000008815000088112830AC200F30AC2049
:100250000130AC200630AC208030AC200800B20069
:10026000320861210A303202031C3F296430320215
:10027000031C4729FF303202031C5029080020309C
:10028000BF202030BF2030303307BF203E29203030
:10029000BF2030303407BF2030303307BF203E2925
:1002A00030303507BF2030303407BF2030303307BF
:1002B000BF203E291030AC002030BF20AC0B5D29A0
:1002C0000800B300B501B4010A303302031C7129E0
:1002D000B300B40A0A303402031C6429B401B50A1D
:0802E0006429340E3307080005
:02400E00C22FBF
:02401000FF3F70
:00000001FF
