:020000040000FA
:10000000FF30AA00A230AB005D30AC00D3202D2120
:10001000FF3033216E30332186204421F120081433
:10002000F12008100E288E30800002308100800BF5
:100030001A28810B17281C28000008009E30820017
:1000400001308300820B2528830B222827280000FB
:10005000080083308400840B2B282E2808004130B0
:100060008500850B3128080019308600860B36285C
:1000700008000E308700870B3B2808000A308800F4
:10008000FF308900890B4228880B402808006C301B
:100090008A00BF308B0002308C008A0B50288B0BFB
:1000A00052288C0B4D2854280000080035308D0054
:1000B000E0308E0001308F008D0B5F288E0B6128A1
:1000C0008F0B5C286328642808003E3090009D3028
:1000D0009100900B6C28910B69286E280000080095
:1000E0007E3092003F309300920B7728930B742858
:1000F0007928000008003E30940020309500940BD1
:100100008228950B7F288428000008009E309600E6
:1001100010309700960B8D28970B8A288F280000A7
:1001200008003E30980007309900980B9828990BEA
:1001300095289A28000008001E309A0004309B0081
:100140009A0BA3289B0BA028A52800000800DA30F2
:100150009C0063309D00AF309E009C0BB0289D0B2F
:10016000B2289E0BAD28000008006C309F00323092
:10017000A0005830A1009F0BBE28A00BC028A10BE7
:10018000BB28C22800000800B530A2009930A300A7
:100190002C30A400A20BCD28A30BCF28A40BCA2877
:1001A000D128D22808004730A5007130A6001230AF
:1001B000A700A50BDC28A60BDE28A70BD928E02872
:1001C000E128E22808002330A800B930A90009304E
:1001D000AA00A80BEC28A90BEE28AA0BE928F02806
:1001E00008001130AB005D30AC000530AD00AB0B4A
:1001F000FA28AC0BFC28AD0BF72808005430AE00F1
:100200007430AF00CC30B0000130B100AE0B092922
:10021000AF0B0B29B00B0D29B10B0629000008000C
:10022000A930B200E730B3009730B4000230B50017
:10023000B20B1B29B30B1D29B40B1F29B50B1829B1
:10024000212922290800FF3FFF3FFF3FFF3FFF3FDB
:10025000FF3FFF3FFF3FFF3FFF3F831603130810A1
:10026000831208100800B6000814B60B382942297A
:100270000E30B800B80B3A2908100E30B800B80B91
:100280003F293429081008001830B700B70B492956
:100290005D292A088039AC0DAB0DAA0D2C10001871
:1002A00052295929163033211320132013202F20CF
:0C02B0004629163033211320462908008F
:0402BC0000340034D6
:02400E00E23F8F
:02401000FF3F70
:00000001FF
