:020000040000FA
:100000003121051A04280128051A04280030AD0002
:10001000FF30AE00A230AF005D30B000FF303821BD
:100020006E3038218A20492101288E30800002302C
:100030008100800B1C28810B19281E280000080055
:100040009E30820001308300820B2728830B2428F6
:1000500029280000080083308400840B2D283028D4
:10006000080041308500850B3328080019308600D0
:10007000860B382808000E308700870B3D280800C3
:100080009030880002308900880B4728890B44286B
:100090004928000008006C308A00BF308B00023015
:1000A0008C008A0B54288B0B56288C0B512858280F
:1000B0000000080035308D00E0308E0001308F00E8
:1000C0008D0B63288E0B65288F0B602867286828A6
:1000D00008003E3090009D309100900B7028910BED
:1000E0006D287228000008007E3092003F30930097
:1000F000920B7B28930B78287D28000008003E3067
:10010000940020309500940B8628950B832888282E
:10011000000008009E30960010309700960B912842
:10012000970B8E289328000008003E309800073077
:100130009900980B9C28990B99289E28000008008C
:100140001E309A0004309B009A0BA7289B0BA42812
:10015000A92800000800DA309C0063309D00AF3011
:100160009E009C0BB4289D0BB6289E0BB128000066
:1001700008006C309F003230A0005830A1009F0B67
:10018000C228A00BC428A10BBF28C6280000080065
:10019000B530A2009930A3002C30A400A20BD128C6
:1001A000A30BD328A40BCE28D528D6280800473087
:1001B000A5007130A6001230A700A50BE028A60B01
:1001C000E228A70BDD28E428E528E62808002330EC
:1001D000A800B930A9000930AA00A80BF028A90B83
:1001E000F228AA0BED28F42808001130AB005D308E
:1001F000AC000530AD00AB0BFE28AC0B0029AD0BFD
:10020000FB2808005430AE007430AF00CC30B00092
:100210000130B100AE0B0D29AF0B0F29B00B112926
:10022000B10B0A2900000800A930B200E730B30082
:100230009730B4000230B500B20B1F29B30B21294F
:10024000B40B2329B50B1C29252926290800FF3FBB
:10025000FF3FFF3FFF3FFF3FFF3FFF3FFF3FFF3FAE
:10026000FF3F8316031308100516831208100800B9
:10027000B6000814B60B3D2947290E30B800B80B5C
:100280003F2908100E30B800B80B4429392908104E
:1002900008002130B700B70B50291830382108006A
:1002A0002D088039031D5B296029B00DAF0DAE0DFF
:1002B000AD0D30104B2918303821A02015205529BC
:0802C0001830382115205529E2
:0402C80000340034CA
:02400E00E23F8F
:02401000FF3F70
:00000001FF
