:020000040000FA
:100000008316031308100516D430810083120810DC
:10001000051A0B280828051A0B28FF3034206E30EB
:1000200034202920FF304520A23045205D30452076
:10003000FF3045201830342008280B112D30810066
:100040000B1D202808000B11BA3081000B1D26283B
:1000500008008316D6308100831283120B1173308F
:1000600081000B1D31280800A1000814A10B3928BC
:1000700043280E30A300A30B3B2808100E30A3002A
:10008000A30B4028352808100800A0000930A20062
:100090008316D43081008312A20B4F280800200859
:1000A0000139031D57285B28A00CA0134C281830D9
:0E00B00034201D2054281830342023205428DA
:0200BE0000340C
:0200C00000340A
:02400E00C22FBF
:02401000FF3F70
:00000001FF
