:020000040000FA
:10000000FF30BB00A230BC005D30BD001821F221E2
:10001000FF30F8215B30F821CB200E223621081466
:10002000362108100E28000000000000000000002B
:1000300000000000000008000000A4302828000094
:10004000403028281F30282800000E30282805308E
:100050008000800B29280800C8303B2864303B28EA
:1000600032303B2814303B280A303B2805303B28EF
:1000700002303B2801308100F93080000000800B05
:100080003E28810B3C280800C8304F2864304F2898
:1000900032304F2814304F280A304F280530820064
:1000A00064308100F93080000000800B5428810BFF
:1000B0005228820B502808008E30830002308400C2
:1000C000830B6328840B60286528000008009E309D
:1000D000850001308600850B6E28860B6B28702802
:1000E0000000080083308700870B742877280800F9
:1000F00041308800880B7A28080019308900890B64
:100100007F2808000E308A008A0B842808000C30F3
:100110008B008B0B892808006C308C00BF308D0061
:1001200002308E008C0B95288D0B97288E0B922811
:1001300099280000080035308F00E0309000013031
:1001400091008F0BA428900BA628910BA128A8281A
:10015000A92808003E3092009D309300920BB128F0
:10016000930BAE28B328000008007E3094003F3087
:100170009500940BBC28950BB928BE2800000800F8
:100180003E30960020309700960BC728970BC42866
:10019000C928000008009E30980010309900980B84
:1001A000D228990BCF28D428000008003E309A00AE
:1001B00007309B009A0BDD289B0BDA28DF28000014
:1001C00008001E309C0004309D009C0BE8289D0B0D
:1001D000E528EA2800000800DA309E0063309F001E
:1001E000AF30A0009E0BF5289F0BF728A00BF2283C
:1001F000000008006C30A1003230A2005830A3008B
:10020000A10B0329A20B0529A30B00290729000034
:100210000800B530A4009930A5002C30A600A40B2E
:100220001229A50B1429A60B0F2916291729080036
:100230004730A7007130A8001230A900A70B212970
:10024000A80B2329A90B1E292529262927290800BF
:100250002330AA00B930AB000930AC00AA0B312919
:10026000AB0B3329AC0B2E29352908001130AD001A
:100270005D30AE000530AF00AD0B3F29AE0B41291C
:10028000AF0B3C2908005430B0007430B100CC30C2
:10029000B2000130B300B00B4E29B10B5029B20BA4
:1002A0005229B30B4B2900000800A930B400E730F5
:1002B000B5009730B6000230B700B40B6029B50B1B
:1002C0006229B60B6429B70B5D29662967290800E6
:1002D000B8007B213808F039880008118811000027
:1002E000881500008811380EF03988000000881544
:1002F00000008811080083160313F0308800831271
:1003000003138810081500008815000008088811DC
:100310000F39BA00000088150000080E88110F3947
:10032000BA04BA1B7B290815831603130030880012
:10033000831203130800B900B8007B213808F03994
:100340008800081188140000881500008811380EF4
:10035000F039880008118814000088150000881101
:1003600039080800831203138811081188100F3010
:100370008800831603130F30880088110811881035
:1003800083120313272030308800000088150000F6
:100390008811362030308800000088150000881150
:1003A0003030880000008815000088111F202720A9
:1003B000203088000000881500008811283068214E
:1003C0000F306821013068210630682180306821B3
:1003D0000800FF3FFF3FFF3FFF3FFF3FFF3FFF3F63
:1003E000FF3FFF3F83160313081083120810080015
:1003F000F1000030F00008147008013EF0007102B6
:1004000003190C2A0E30BF00BF0B042A08100E304F
:10041000BF00BF0B092AFB29081008000030BE00EE
:100420003E08013EBE00203C03192D2A3B088039BE
:10043000BB0D801F1C2A272A1630F8215C205C2067
:100440005C2072207820872082208220102A16309B
:0C045000F8215C2078208220102A08008F
:04045C000034003434
:02400E00E23F8F
:02401000FF3F70
:00000001FF
