:020000040000FA
:100000000621E021FF30E6219230E6212421081468
:100010002421081006280000000000000000000055
:1000200000000000000008000000A43020280000AC
:10003000403020281F30202800000E3020280530B6
:10004000A000A00B21280800C830332864303328D2
:1000500032303328143033280A303328053033281F
:10006000023033280130A100F930A0000000A00BBD
:100070003628A10B34280800C830472864304728A8
:1000800032304728143047280A3047280530A2006C
:100090006430A100F930A0000000A00B4C28A10B97
:1000A0004A28A20B482808008E30A3000230A40082
:1000B000A30B5B28A40B58285D28000008009E3085
:1000C000A5000130A600A50B6628A60B63286828AA
:1000D000000008008330A700A70B6C286F280800D9
:1000E0004130A800A80B722808001930A900A90BFC
:1000F000772808006C30AA00BF30AB000230AC009B
:10010000AA0B8328AB0B8528AC0B8028872800001E
:1001100008003530AD00E030AE000130AF00AD0B6F
:100120009228AE0B9428AF0B8F28962897280800AA
:100130003E30B0009D30B100B00B9F28B10B9C2821
:10014000A128000008007E30B2003F30B300B20B9F
:10015000AA28B30BA728AC28000008003E30B40042
:100160002030B500B40BB528B50BB228B728000075
:1001700008009E30B6001030B700B60BC028B70B91
:10018000BD28C228000008003E30B8000730B90082
:10019000B80BCB28B90BC828CD28000008001E30AA
:1001A000BA000430BB00BA0BD628BB0BD328D82822
:1001B00000000800DA30BC006330BD00AF30BE0084
:1001C000BC0BE328BD0BE528BE0BE02800000800AF
:1001D0006C30BF003230C0005830C100BF0BF12876
:1001E000C00BF328C10BEE28F52800000800B5303D
:1001F000C2009930C3002C30C400C20B0029C30BCD
:100200000229C40BFD280429052908004730C50030
:100210007130C6001230C700C50B0F29C60B11295B
:10022000C70B0C2913291429152908002330C800ED
:10023000B930C9000930CA00C80B1F29C90B2129D0
:10024000CA0B1C29232908001130CB005D30CC00DB
:100250000530CD00CB0B2D29CC0B2F29CD0B2A2916
:1002600008005430CE007430CF00CC30D0000130C4
:10027000D100CE0B3C29CF0B3E29D00B4029D10B0E
:10028000392900000800A930D200E730D3009730A8
:10029000D4000230D500D20B4E29D30B5029D40BF9
:1002A0005229D50B4B29542955290800D60069211C
:1002B0005608F039880008118811000088150000E0
:1002C0008811560EF039880000008815000088114A
:1002D000080083160313F03088008312031388107C
:1002E0000815000088150000080888110F39D8008B
:1002F000000088150000080E88110F39D804D81B9B
:10030000692908158316031300308800831203132C
:100310000800D700D60069215608F0398800081176
:1003200088140000881500008811560EF0398800E6
:10033000081188140000881500008811570808006B
:10034000831203138811081188100F308800831658
:1003500003130F30880088110811881083120313CB
:100360001F203030880000008815000088112E20E2
:100370003030880000008815000088113030880077
:10038000000088150000881117201F2020308800E9
:100390000000881500008811283056210F305621A2
:1003A0000130562106305621803056210800FF3F8B
:1003B000FF3FFF3FFF3FFF3FFF3FFF3FFF3FFF3F4D
:1003C000831603130810831208100800DF000030A2
:1003D000DE0008145E08013EDE005F020319F42906
:0C03E000752008107520E929081008009D
:0403EC0000340034A5
:02400E00E23F8F
:02401000FF3F70
:00000001FF
