:020000040000FA
:100000001B208316D43081008312051A0828052886
:10001000051A0828FF3022206E3022200B112D30C7
:1000200081000B1D11280528FF3FFF3FFF3FFF3FC9
:10003000FF3FFF3FFF3F831603130810051683128F
:100040000810080080000814800B272831280E3083
:100050008200820B292808100E308200820B2E2885
:100060002328081008009A00083081008316D43035
:1000700081008312810B3F281830222008001A08C3
:100080008039031D47284F289A0D1A103A28183036
:1000900022200B112D3081000B1D4C2844281830D4
:0E00A00022200B11BA3081000B1D5428442879
:0200AE0000341C
:0200B00000341A
:02400E00E23F8F
:02401000FF3F70
:00000001FF
