:020000040000FA
:10000000CD202721FF3033216E3033218020442141
:10001000EB200814EB20081008288E3080000230F6
:100020008100800B1428810B11281628000008007D
:100030009E30820001308300820B1F28830B1C2816
:1000400021280000080083308400840B25282828FC
:10005000080041308500850B2B28080019308600E8
:10006000860B302808000E308700870B35280800E3
:100070000A308800FF308900890B3C28880B3A2819
:1000800008006C308A00BF308B0002308C008A0B75
:100090004A288B0B4C288C0B47284E280000080060
:1000A00035308D00E0308E0001308F008D0B5928E7
:1000B0008E0B5B288F0B56285D285E2808003E308B
:1000C00090009D309100900B6628910B6328682862
:1000D000000008007E3092003F309300920B7128A0
:1000E000930B6E287328000008003E3094002030E7
:1000F0009500940B7C28950B79287E280000080039
:100100009E30960010309700960B8728970B842816
:100110008928000008003E30980007309900980BAD
:100120009228990B8F289428000008001E309A000E
:1001300004309B009A0B9D289B0B9A289F28000057
:100140000800DA309C0063309D00AF309E009C0BAD
:10015000AA289D0BAC289E0BA728000008006C3035
:100160009F003230A0005830A1009F0BB828A00B90
:10017000BA28A10BB528BC2800000800B530A200A1
:100180009930A3002C30A400A20BC728A30BC928C8
:10019000A40BC428CB28CC2808004730A500713018
:1001A000A6001230A700A50BD628A60BD828A70BAF
:1001B000D328DA28DB28DC2808002330A800B9304F
:1001C000A9000930AA00A80BE628A90BE828AA0B69
:1001D000E328EA2808001130AB005D30AC000530A0
:1001E000AD00AB0BF428AC0BF628AD0BF1280800E2
:1001F0005430AE007430AF00CC30B0000130B100EC
:10020000AE0B0329AF0B0529B00B0729B10B002951
:1002100000000800A930B200E730B3009730B40006
:100220000230B500B20B1529B30B1729B40B1929ED
:10023000B50B12291B291C290800FF3FFF3FFF3F78
:10024000FF3FFF3FFF3FFF3FFF3FFF3FFF3FFF30CD
:10025000A400A230A5005D30A60083160313081089
:10026000831208100800B6000814B60B382942297A
:100270000E30B800B80B3A2908100E30B800B80B91
:100280003F293429081008001930B700B70B492955
:100290005C2924088039031D53295829A60DA50D72
:1002A000A40D26104629183033210D200D204E298B
:0A02B000183033210D204E290800FC
:0402BA0000340034D8
:02400E00E23F8F
:02401000FF3F70
:00000001FF
