:020000040000FA
:100000002E21051A04280128051A0428FF30AB0008
:10001000A230AC005D30AD00FF3035216E303521AF
:100020008820462101288E30800002308100800B1C
:100030001A28810B17281C28000008009E30820017
:1000400001308300820B2528830B222827280000FB
:10005000080083308400840B2B282E2808004130B0
:100060008500850B3128080019308600860B36285C
:1000700008000E308700870B3B280800903088006E
:1000800002308900880B4528890B42284728000048
:1000900008006C308A00BF308B0002308C008A0B65
:1000A00052288B0B54288C0B4F2856280000080030
:1000B00035308D00E0308E0001308F008D0B6128CF
:1000C0008E0B63288F0B5E286528662808003E305B
:1000D00090009D309100900B6E28910B6B2870283A
:1000E000000008007E3092003F309300920B792888
:1000F000930B76287B28000008003E3094002030C7
:100100009500940B8428950B812886280000080010
:100110009E30960010309700960B8F28970B8C28F6
:100120009128000008003E30980007309900980B95
:100130009A28990B97289C28000008001E309A00E6
:1001400004309B009A0BA5289B0BA228A72800002F
:100150000800DA309C0063309D00AF309E009C0B9D
:10016000B2289D0BB4289E0BAF28000008006C300D
:100170009F003230A0005830A1009F0BC028A00B78
:10018000C228A10BBD28C42800000800B530A20079
:100190009930A3002C30A400A20BCF28A30BD128A8
:1001A000A40BCC28D328D42808004730A5007130F0
:1001B000A6001230A700A50BDE28A60BE028A70B8F
:1001C000DB28E228E328E42808002330A800B9301F
:1001D000A9000930AA00A80BEE28A90BF028AA0B49
:1001E000EB28F22808001130AB005D30AC00053080
:1001F000AD00AB0BFC28AC0BFE28AD0BF9280800BA
:100200005430AE007430AF00CC30B0000130B100DB
:10021000AE0B0B29AF0B0D29B00B0F29B10B082921
:1002200000000800A930B200E730B3009730B400F6
:100230000230B500B20B1D29B30B1F29B40B2129C5
:10024000B50B1A29232924290800FF3FFF3FFF3F50
:10025000FF3FFF3FFF3FFF3FFF3FFF3F831603137B
:1002600008100516831208100800B6000814B60B13
:100270003A2944290E30B800B80B3C2908100E303A
:10028000B800B80B41293629081008001930B7000A
:10029000B70B4D291830352108002B088039031D74
:1002A00057295C29AD0DAC0DAB0D2D104829183028
:1002B00035219E2013205229183035211320522930
:0402C00000340034D2
:02400E00E23F8F
:02401000FF3F70
:00000001FF
