:020000040000FA
:020000000528D1
:040002000034003492
:08000800742883160313203055
:100010008C008D018030870024309800CF3099000B
:100020008601F93092008312031390018C018D0137
:1000300090309800C0308B000C3097009D00CC3081
:10004000950000309B000530920086011A081A08BE
:100050001A080030A0003028A110A11830282D283F
:10006000831203132408553A03193F282408AA3A97
:10007000031947282408333A03194A282C28FF304B
:100080009B000130A0072008073986002C28333058
:1000900095072C2800309B000130A0072008073965
:1000A0008600FF30A5005C20A50B5328FF30A5007B
:1000B0006820A50B58284A281010EC308F007830A3
:1000C0008E0010140C1C622810100C109B0A0800E3
:1000D000101065308F0068308E0010140C1C6E28D4
:1000E00010100C109B030800A200030E83120313D0
:1000F000A3008C1E8328A11883281A08A400A11429
:100100001A08181218161A081A08230E8300A20ECD
:04011000220E0900B2
:02400E00F23F7F
:00000001FF
