:020000040000FA
:020000000528D1
:040002000034003492
:080008003C28831603130711C5
:1000100020308C008D01871724309800193099000A
:100020008601F9309200831203138C0190309800FE
:10003000C0308B000C309700CC309500053092001A
:1000400086010030A0002828A110A1182828252802
:10005000831203132408553A031933282408AA3AB3
:100060000319392824280130A00720080739860001
:100070002428333095072428A200030E831203138B
:10008000A3008C1E4B28A1184B281A08A400A11409
:100090001A08181218161A081A08230E8300A20E3E
:0400A000220E090023
:02400E00F23F7F
:00000001FF
