:020000040000FA
:020000000528D1
:040002000034003492
:080008004028831603130711C1
:1000100020308C008D018717193099008601F93046
:1000200092000317831203138C01181618129817E5
:100030009800C0308B000C309700CC309500053014
:10004000920086011A081A081A080030A0002C280D
:10005000A110A1182C282928831203132008553A2F
:10006000031937282008AA3A03193D282828013007
:10007000A00720080739860028283330950728284C
:10008000A200030E83120313A3008C1E4F28A11895
:100090004F281A08A000A1141A08181218161A08D6
:0C00A0001A08230E8300A20E220E090095
:02400E00F23F7F
:00000001FF
