:020000040000FA
:020000000528D1
:040002000034003492
:08000800862883160313033060
:1000100081008D018701850111308600F930920041
:100020008312031390018C018D0190308B000C30F2
:1000300097009D00CC30950000309B000530920069
:100040008501A101A201A701A301A401A001A501AD
:10005000A6013128A0108312031320112019312882
:100060002E28C520C520831203132308003A031D40
:100070003F28831203132408103A031958288312C7
:1000800003132308083A031D4B2883120313240883
:10009000103A03196328831203132308043A031D3B
:1000A0002A28831203132408103A031968282A28DF
:1000B0002011A010FF309B0083120313A10A210816
:1000C000073985002A282011A010333095072A28E7
:1000D0002011A01000309B0083120313A10A2108F5
:1000E0000739850083120313FF30A70020192A283F
:1000F000BA209B0AA70B7628BA20FF30A700201948
:100100002A28BA209B03A70B7F286C28A500030E82
:10011000A6008312A0189528AE20061EA228A014BF
:10012000A301A401A2012011A228A20AB420061E44
:100130009E280310A40DA30D0310A2280314A40DE0
:10014000A30D03108312031322080C3A0319201580
:10015000260E8300A50E250E8B1009000B116430AE
:1001600081000B1DB12808000B11C83081000B1D48
:10017000B7280800101065308F0068308E0010140A
:100180000C1CC02810100C10080010108A308F00B2
:10019000D0308E0010140C1CCB2810100C1008004E
:02400E00F23F7F
:00000001FF
