:020000040000FA
:100000008316031300308800831203133E20081464
:100010003E20081000280000000000000000000042
:10002000000008000000A4301E28000040301E28F8
:100030001F301E2800000E301E2805308000800B67
:100040001F280800C8303128643031283230312868
:10005000143031280A303128053031280230312857
:1000600001308100F93080000000800B3428810BC2
:1000700032280800C83045286430452832304528E9
:10008000143045280A30452805308200643081004C
:10009000F93080000000800B4A28810B4828820B31
:0400A00046280800E6
:0400A40000340034F0
:02400E00E23F8F
:02401000FF3F70
:00000001FF
