:020000040000FA
:020000000528D1
:040002000034003492
:080008004228831603130711BF
:1000100020308C008D018717193099008801F93044
:100020009200031788018901831203138C011816AB
:10003000181298179800C0308B000C309700CC3005
:1000400095000530920088011A081A081A08003035
:10005000A0002E28A110A1182E282B2883120313EC
:100060007008553A031939287008AA3A03193F282D
:100070002A280130A0072008073988002A283330B1
:1000800095072A28A200030E83120313A3008C1ED7
:100090005128A11851281A08F000A1141A081812A2
:1000A00018161A081A08230E8300A20E220E090041
:02400E00C22FBF
:02401000FF3F70
:00000001FF
